:020000041000EA
:1000000000B5324B212058609868022188439860DF
:10001000D860186158612E4B002199600221596106
:100020000121F02299502B49196001219960352056
:1000300000F044F80222904214D00621196600F024
:1000400034F8196E01211966002018661A6600F04E
:100050002CF8196E196E196E052000F02FF8012189
:100060000842F9D1002199601B49196000215960AB
:100070001A491B48016001219960EB211966A021F2
:10008000196600F012F800219960164914480160C1
:100090000121996001BC002800D000471248134993
:1000A000086003C880F30888084703B5996A0420EC
:1000B0000142FBD001200142F8D103BD02B5186610
:1000C0001866FFF7F2FF186E186E02BD00000240BE
:1000D000000000180000070000035F00212200005C
:1000E000F4000018222000A00001001008ED00E03C
:1000F00000000000000000000000000074B24E7A12
:1001000000000420E3010010C3010010E903001007
:10011000C1010010C1010010C1010010C101001097
:10012000C1010010C1010010C10100104503001001
:10013000C1010010C1010010C9030010D503001057
:10014000CD010010CD010010CD010010CD01001037
:10015000CD010010CD010010CD010010CD01001027
:10016000CD010010CD010010CD010010CD01001017
:10017000CD010010CD010010CD010010CD01001007
:10018000CD010010CD010010CD010010CD010010F7
:10019000CD010010CD010010CD010010CD010010E7
:1001A000CD010010CD010010CD010010CD010010D7
:1001B000CD010010CD010010CD010010CD010010C7
:1001C00000BE00BE00BE00BE00BE00BE00F03FF894
:1001D000103800BE00202049086006C881F3088856
:1001E00010471E48006800282DD10CA40ECC002911
:1001F00002D000F010F8F9E719491A4A002000E08F
:1002000001C19142FCD1184988471849884700BE6E
:10021000FDE701C901C29A42FBD37047FC7E03107F
:10022000C0000020E41900205098031000000420B2
:100230000000042050980310001004200010042037
:100240000000000070470A4820F030FF0047EFF33D
:100250000580C0B27047000008ED00E0000000D04B
:10026000181A0020FC290120CD02001059E90110C4
:1002700057560000F8B5C046F8BC08BC9E4670470B
:10028000F8B5C04610B5064C2378002B07D1054BB6
:10029000002B02D0044800E000BF0123237010BDF2
:1002A000B01F00200000000084020010044B10B5B5
:1002B000002B03D00349044800E000BF10BDC04636
:1002C00000000000B41F002084020010164B002B19
:1002D00000D1144B9D46402292029A1A9246002168
:1002E0008B460F461348144A121A25F0FDFF0F4B98
:1002F000002B00D098470E4B002B00D098470020D1
:10030000002104000D000D48002802D00C481EF00A
:1003100026FB25F059FB200029001AF053FC1EF0A3
:100320001BFBC04600000800000004200000000085
:1003300025AB0110181A0020FC2901205FE90110EB
:10034000000000007046C0082CD3EFF309808169DB
:1003500002390978002929D101B50FC8B8470CBC6A
:1003600003C29E461E4B06CB91421ED0083B1A602C
:10037000002909D0EFF3098020388863F0C0444693
:100380004D4656465F46F0C0906B1030F0C8A04610
:10039000A946B246BB4680F309882038F0C802203F
:1003A000C0430047EFF30880D1E770470D4A136858
:1003B0009942FAD801B5890053589C460FC8E047C6
:1003C0000CBC10609E46704701B519F071FE03BC6D
:1003D0008E46C7E701B519F029FE03BC8E46C1E77A
:1003E000F00D0020284C0310102304E0202302E02D
:1003F000302300E040239C46F0B404AE7546E80884
:1004000001D3EFF309860E4F0FCE0FC70FBC0FC7F6
:100410004046494652465B460FC71DCE3100A60AEC
:1004200000D304316E0900D248311FC7EFF30980B1
:100430006946EFF3148663C7604601491DF028FE44
:100440006C29012001480421014B1847F00F0020BE
:10045000BD10021002B4714649084900095649000E
:100460008E4402BC7047C04602B471464908490038
:10047000095C49008E4402BC7047C0460022430814
:100480008B4274D303098B425FD3030A8B4244D35C
:10049000030B8B4228D3030C8B420DD3FF2209029E
:1004A00012BA030C8B4202D31212090265D0030B5D
:1004B0008B4219D300E0090AC30B8B4201D3CB0353
:1004C000C01A5241830B8B4201D38B03C01A524195
:1004D000430B8B4201D34B03C01A5241030B8B4297
:1004E00001D30B03C01A5241C30A8B4201D3CB0282
:1004F000C01A5241830A8B4201D38B02C01A524167
:10050000430A8B4201D34B02C01A5241030A8B4269
:1005100001D30B02C01A5241CDD2C3098B4201D381
:10052000CB01C01A524183098B4201D38B01C01AFF
:10053000524143098B4201D34B01C01A5241030976
:100540008B4201D30B01C01A5241C3088B4201D325
:10055000CB00C01A524183088B4201D38B00C01AD2
:10056000524143088B4201D34B00C01A5241411AF9
:1005700000D20146524110467047FFE701B5002006
:1005800000F0F0F802BDC0460029F7D076E77047CA
:1005900003460B437FD4002243088B4274D30309E4
:1005A0008B425FD3030A8B4244D3030B8B4228D385
:1005B000030C8B420DD3FF22090212BA030C8B42AB
:1005C00002D31212090265D0030B8B4219D300E04B
:1005D000090AC30B8B4201D3CB03C01A5241830BD0
:1005E0008B4201D38B03C01A5241430B8B4201D380
:1005F0004B03C01A5241030B8B4201D30B03C01AA9
:100600005241C30A8B4201D3CB02C01A5241830A22
:100610008B4201D38B02C01A5241430A8B4201D351
:100620004B02C01A5241030A8B4201D30B02C01A7B
:100630005241CDD2C3098B4201D3CB01C01A5241E2
:1006400083098B4201D38B01C01A524143098B426B
:1006500001D34B01C01A524103098B4201D30B0154
:10066000C01A5241C3088B4201D3CB00C01A524179
:1006700083088B4201D38B00C01A524143088B423E
:1006800001D34B00C01A5241411A00D201465241D7
:10069000104670475DE0CA0F00D04942031000D3F6
:1006A0004042534000229C4603098B422DD3030A4B
:1006B0008B4212D3FC22890112BA030A8B420CD35B
:1006C000890192118B4208D3890192118B4204D384
:1006D00089013AD0921100E08909C3098B4201D304
:1006E000CB01C01A524183098B4201D38B01C01A3E
:1006F000524143098B4201D34B01C01A52410309B5
:100700008B4201D30B01C01A5241C3088B4201D363
:10071000CB00C01A524183088B4201D38B00C01A10
:100720005241D9D243088B4201D34B00C01A5241E7
:10073000411A00D20146634652415B10104601D374
:100740004042002B00D54942704763465B1000D3FE
:10075000404201B5002000F005F802BD0029F8D0A4
:1007600016E770477047C046D0400B1CD1409C46EE
:10077000203AD3401843524263469340184370478F
:100780009140031C90409C46203A934019435242AA
:100790006346D340194370478446101C62468C461A
:1007A000191C634600E0C0461FB502F013F800288C
:1007B00001D40021C8421FBD10B501F06BFF4042BB
:1007C000013010BD10B502F005F8002801DB002053
:1007D00010BD012010BDC04610B501F0FBFF002880
:1007E00001DD002010BD012010BDC04610B501F094
:1007F0008DFF002801DC002010BD012010BDC04687
:1008000010B501F083FF002801DA002010BD01209F
:1008100010BDC0468446081C6146FFE71FB500F0C6
:1008200015FD002801D40021C8421FBD10B500F0FD
:1008300097FC4042013010BD10B500F007FD0028C4
:1008400001DB002010BD012010BDC04610B500F036
:10085000FDFC002801DD002010BD012010BDC046B8
:1008600010B500F0A5FC002801DC002010BD01201F
:1008700010BDC04610B500F09BFC002801DA002036
:1008800010BD012010BDC0461C2101231B0498424D
:1008900001D3000C10391B0A984201D3000A083911
:1008A0001B09984201D30009043902A2105C4018C8
:1008B0007047C0460403020201010101000000006C
:1008C00000000000002B15D1002A13D1002906DBFF
:1008D00001DC002806D00020C043410802E080214E
:1008E0000906002007B4024801A14018029003BD88
:1008F00075FEFFFF03B4684601B5029800F068F981
:10090000019B9E4602B00CBC7047C046002B11D123
:10091000002A0FD1002900D1002802D00021C943AC
:10092000081C07B4024802A14018029003BDC0464B
:1009300035FEFFFF03B4684601B5029800F086F863
:10094000019B9E4602B00CBC7047C046F0B5CE4637
:10095000474615042D0C2E0080B50704140C3F0CDF
:100960009946030C7E435D43674363437F19340C10
:10097000E4199C46A54203D980235B029846C444EF
:100980004B4643435143250C36046544360C24043E
:10099000A4195B19591820000CBC90469946F0BD6B
:1009A0009E2110B5C905041CFFF764FF002803D180
:1009B000201C00F0A7FF10BD9E21201CC90500F0DF
:1009C000C7FD00F09FFF80231B069C466044F2E7B2
:1009D00070B500220C4B04000D00FFF711FF00283A
:1009E00004D12000290002F033FD70BD064B002227
:1009F0002000290002F0C8F902F02AFD80231B061E
:100A00009C466044F1E7C0460000E04170B502F04A
:100A1000C1FD00220B4B0D00040001F043FFFFF766
:100A2000D7FF060002F084FD0022074B01F03AFFD9
:100A300002000B002000290002F0A6F9FFF7C8FF12
:100A4000310070BD0000F03D0000F041F0B54F46B0
:100A50004646D646C0B5040082B00D009146984681
:100A60008B422FD82CD04146484602F069FE29001F
:100A70000600200002F064FE331A9C46203B9A4692
:100A800000D576E04B46524693401F004B466246E7
:100A900093401E00AF4228D825D05346A41BBD4129
:100AA000002B00DA7BE00022002300920193012357
:100AB000524693400193012362469340009318E00D
:100AC0008242D0D900220023009201930A9B002B7E
:100AD00001D01C605D600098019902B01CBC90467A
:100AE0009946A246F0BDA342D7D900220023009226
:100AF00001936346002BE9D0FB07984641467208F4
:100B00000A437B0866460EE0AB4201D1A2420CD8F4
:100B1000A41A9D41012024196D410021013E241891
:100B20004D41002E06D0AB42EED9013E24196D4155
:100B3000002EF8D100980199534600196941002B05
:100B400023DB2B005246D3402A006446E2401C00BF
:100B500053461500002B2DDB26005746BE403300C0
:100B600026006746BE403200801A994100900191EC
:100B7000ACE7624620239B1A4A46DA4061461300DE
:100B800042468A4017001F4380E7624620239B1A93
:100B90002A0066469A402300F3401343D4E7624696
:100BA000202300219B1A0022009101920122DA40A9
:100BB000019280E72023624626009B1ADE402F0028
:100BC000B0466646B74046463B003343C8E7C0469A
:100BD000F0B583B016001F000090019102F0BCFD3B
:100BE00004000D0002000B0030003900FFF7AEFEDC
:100BF000009A019B121A8B41089920000A604B60F1
:100C0000290003B0F0BDC046F8B54746CE464302C2
:100C10005B0A4400C20F9C464800DD004B02240ED4
:100C20005B0A000E80B5984626009146C90FDB008E
:100C3000271A8A4229D0002F15DD00284AD1002B1F
:100C400000D095E0ED08FF2C00D188E06B025B0A34
:100C5000E6B25B02F605580A3043D20710430CBCDB
:100C600090469946F8BD002F00D087E0601CC0B2C6
:100C7000012800DCB6E0EE1A720100D5C5E0002EB6
:100C80003DD1002200260023E3E7002F00DC96E0A0
:100C900000285DD0FF2C60D08022D20413431B2F8C
:100CA00000DDECE02022D21B18009340F8405A1ED1
:100CB00093410343ED186B017BD50134FF2C00D128
:100CC000B7E0012207262A406B089A4D1D401543C4
:100CD0002E4029E0FF2CB5D08022D20413431B2FD5
:100CE00000DDB2E02022D21B19009340F9405A1EC9
:100CF00093410B43ED1A6B015BD5AD01AE0930009A
:100D0000FFF7C2FD05388640844265DC041B3300D2
:100D100020200134E340041BA640751EAE4133433E
:100D200007261D0000241E4001224B461A40002EBB
:100D300004D00F232B40042B00D004356B0100D4CA
:100D400080E70134E6B2FF2C2FD1FF26002380E795
:100D5000002B52D1FF2C00D074E70A00ED08002DC3
:100D6000F3D08023DB032B435B025B0AFF2670E793
:100D7000013F002FBED0FF2CB1D163E7002C47D03C
:100D8000FF2869D08024E4047A4225431B2A00DD31
:100D9000C5E02C002026D440B21A95406A1E954129
:100DA00025435D1B04008946A5E7AB015B0A50E7BC
:100DB000002401224B461A406B07BAD142E7002FAC
:100DC0003BD10134E0B201284ADDFF2CBDD007261B
:100DD000ED186D082E40A7E70723574D241A35401C
:100DE0001E40A1E7002C1BD1002D6ED1002B00D19D
:100DF0009AE00A001D003C0024E7013F002F00D1CB
:100E000058E7FF2C00D04AE7A7E75E1B894676E744
:100E1000002D1CD10A00FF281FD004001D0011E77F
:100E2000002D5DD1002B17D180230022DB03FF268C
:100E30000FE70A00FF2600230BE7002C21D1002D2D
:100E400066D1FF28E9D11D0087E7012352E77A1C0C
:100E5000A7D0FA43FF2899D10A001D00FF24F1E62C
:100E6000002E21D1002D4FD0002B4CD0ED186B015E
:100E70009ED5314B07362E4001241D4054E70123F7
:100E800018E7FF28DFD08024E4047F4225431B2F8E
:100E90004DDC2026F61B2C00B540FC406A1E954117
:100EA0002543ED18040006E7002DCCD0002B00D11F
:100EB00053E780216046C903084203D040460842F8
:100EC00000D11D000121114047E7002B00D1B9E6F8
:100ED000EA1A500125D507265D1B2E40894623E7D7
:100EE000FF24002B00D1ADE680226046D2031042E1
:100EF00004D04046104201D11D00894601224B46D4
:100F0000FF241A409EE62B00DD080A0000249DE61F
:100F10007A1CC6D0FF43FF28B9D11D001DE701256B
:100F20003FE7151E00D044E70022002391E601258B
:100F3000B7E7C046FFFFFF7DFFFFFFFBF8B5574651
:100F40004E464546DE464402E0B546008846640A01
:100F5000360EC70F002E63D0FF2E24D08023E4006E
:100F6000DB041C43002399469B467F3E4346424692
:100F70005D02D20F5B006D0A1B0E9046924665D053
:100F8000FF2B55D080220021ED00D2047F3B15437A
:100F9000F61A43464A467B400F2A00D98DE06D4839
:100FA000920082589746002C54D108239946063B5C
:100FB000FF269B46DAE70025534602291BD003296A
:100FC00000D1BFE0012928D030007F30002820DD8B
:100FD0006A0704D00F222A40042A00D004352A01CF
:100FE00003D530005C4A80301540FE2803DCAC019C
:100FF000640AC2B201E0FF2200246402D205600A42
:10100000DB07104318433CBC90469946A246AB46CA
:10101000F8BD0122101A1B287CDD00220024ECE719
:10102000002C1DD104239946033B00269B469DE7D7
:10103000FF3E002D20D1022143464A467B400A4311
:101040000F2AD8D84548920082589746002D19D1CA
:101050000121F1E70C239946093BFF269B4685E7D2
:101060002000FFF711FC7626431F9C4000237642A8
:10107000361A99469B4679E74A4603231A43914616
:10108000032186E72800FFF7FFFB431F36189D402A
:10109000763600217DE780240023E403FF22ACE7BD
:1010A00000258023DB031C4228D01D4226D12B4380
:1010B0005C02640A4346FF229FE762016C01A24280
:1010C00024D21B210025013E012710006D00520093
:1010D000002801DB944201D8121B3D43013900294D
:1010E000F3D11400621E944125436DE7BA46594678
:1010F00025005346022900D061E77CE78023DB030B
:101100001C436402640A3B00FF2276E7121B1A218B
:101110000125D9E79E362A00B5402C00C240651E45
:10112000AC411443620704D00F222240042A00D0AD
:101130000434620103D4A401640A00225DE70122A1
:1011400000245AE78024E4032C436402640AFF224B
:1011500053E7C04638ED0210FFFFFFF778ED0210AD
:1011600070B542004E024C0045026D0A120EC30FCC
:10117000760A240EC90FFF2A0FD0FF2C11D00120B0
:10118000A24200D070BDB542FCD18B420DD0002AE6
:10119000F8D12800451EA841F4E70120002DF1D127
:1011A000EBE70120002EEDD1E9E70020EAE7C04699
:1011B00070B54A004E02450244006D0A240EC30F6A
:1011C000760A120EC90FFF2C15D0FF2A0ED0002C64
:1011D00015D1002A01D1002E1CD0002D14D08B4235
:1011E00027D00220013B1840013870BD002EEED000
:1011F00002204042F9E7002DFAD1FF2A0ED0002A42
:101200000ED1002EEDD00BE00123013999430800E7
:101210000130EAE70020002DE7D0E2E7002EE7D119
:101220008B42DED1944205DD0221581E0840013870
:10123000DBE70024A24204DCB542D2D80020B5424C
:10124000D3D2581E012398430130CEE730B5420077
:1012500044024D02C30F4800640A120E6D0A000ECC
:10126000C90FFF2A12D0FF280CD0002A12D1002863
:1012700019D1002D17D1002C2BD00220013B184092
:10128000013826E0002DF0D0022022E0002CFBD116
:10129000FF281FD000281FD1002D1DD10220013BA7
:1012A0001840013815E0002C0ED08B42E5D1002209
:1012B000904204DCAC42E0D80020AC4209D2581E77
:1012C00001239843013004E00123013999430800C8
:1012D000013030BD002DD7D18B42CED18242E7DD27
:1012E0000221581E08400138F3E7C046F0B54E46CB
:1012F00057464546DE46E0B543025B0A450083B0EB
:101300000F1C99462D0EC60F002D57D0FF2D24D04F
:101310008020DB00C0041843002381469A469B4688
:101320007F3D7C027A00FB0F640A120E984623D0A0
:10133000FF2A4BD0E30080240020E4047F3A1C43C2
:10134000AD186B1C47460193534677403A000F2B6C
:1013500048D87D499B00CB589F46002B00D085E0A4
:1013600008339A46063B9B467C027A00FB0FFF251A
:10137000640A120E9846DBD1002C00D090E0524651
:1013800001231A4392460120DBE74C4658461700DA
:10139000022824D0032800D1CFE000220023012816
:1013A0004DD15802D205400AFF071043384303B01D
:1013B0003CBC90469946A246AB46F0BD002B5BD1A3
:1013C00004239A46033B00259B46AAE7FF35002CE1
:1013D00060D1524602231A4392460220B1E7FF220F
:1013E0000023DEE74B461B0C9C464B462604360C7E
:1013F000180461463300220C6446000C43434E43FC
:101400005043544380191A0C1218964203D9802174
:1014100049028C4664441B041B0C1004C018830151
:101420005E1EB341800E1843130C1B199B0103432E
:101430001C00230179D5012362081C401443019A42
:101440007F32002A4DDD630704D00F232340042B95
:1014500000D00434230103D53C4B019A1C40803258
:10146000FE2ABCDCA3015B0AD2B29AE70C239A469F
:10147000093BFF259B4654E71800FFF705FA4A464B
:10148000431F76259A4000236D4291462D1A9A46B5
:101490009B4646E7524603231A439246032050E7F1
:1014A0002000FFF7F1F9431F2D1A9C40763D0020E4
:1014B00047E780230027DB03FF2272E7424666E707
:1014C0004C463200584662E780234A46DB031A4204
:1014D00022D01C4220D123435B025B0A4746FF22F5
:1014E0005FE701239A1A1B2A21DC23000199D340CC
:1014F0009E318C401A0023005C1EA34113435A07FF
:1015000004D00F221A40042A00D004335A0111D407
:101510009B015B0A002244E780234A46DB03134316
:101520005B025B0A3700FF223BE7019587E7002259
:10153000002336E70122002333E78023DB03234324
:101540005B025B0AFF222CE7B8ED0210FFFFFFF7FA
:10155000F8B54746CE464400C20F80B54702480260
:10156000400A8446664648007F0A240EF60025009D
:101570009046FB00000EC90FB146FF2800D185E060
:1015800001267140261A914257D0002E43DD0028D3
:1015900000D07FE04946002900D1AAE0013E002E9C
:1015A00000D0F7E05B1A5A0100D48BE09B019C0944
:1015B0002000FFF769F905388440854200DDD3E05B
:1015C000451B230020200135EB40451BAC40621E2B
:1015D00094412343072400251C40012241460A4030
:1015E000002C04D00F211940042900D004335901E4
:1015F00000D480E00135ECB2FF2D00D0A3E0FF2441
:1016000000235B02E405580AD207204310430CBCB8
:1016100090469946F8BD002E74D1601CC0B20128D6
:1016200000DCA7E04A469C1A620100D5B6E0002C17
:10163000BED1002200240023E3E7002E00DC85E079
:10164000002846D0FF2C49D080224846D2041043BF
:10165000814601221B2E09DC20204C46801B844041
:101660004A462000F240441EA04102439B185A0102
:1016700028D50135FF2D00D1A8E001220724944987
:101680001A405B080B4013431C40A6E7002E00D015
:1016900078E775E7FF2C54D080224946D2041143E5
:1016A000894601221B2E09DC20214846891B8840DF
:1016B0004A460100F240481E81410A439B1A5A01E2
:1016C00000D573E7012241460A40590700D089E757
:1016D00011E04846002858D1FF2C0CD1DB08002B24
:1016E00000D18CE78020C00303435B025B0AFF2428
:1016F00087E7FF2C25D0DB08FF2DF0D05B025B0ACB
:10170000ECB27EE7002C4DD0FF2818D08024E404F2
:10171000724223431B2A00DDC4E01C002025D44074
:10172000AA1A93405A1E934123434A460500D31AEE
:10173000884638E7721CF8D0F243FF28EAD10A0045
:101740004B46FF25D7E79B015B0A5AE7002E41D1A4
:10175000651CE9B2012945DDFF2D00D14FE70724C3
:101760004B445B081C4038E707225A4B2D1A234094
:10177000144032E7002C1DD1002B7AD14B46002BB0
:1017800000D191E00A000025B5E7013E002E19D1F5
:101790004B446CE7FF2C84D1FF25ACE74A468846D2
:1017A000D41A05E7002BC5D10A00FF28C8D00500D0
:1017B0004B46A0E7002B49D14B46002B77D00A00BF
:1017C000FF2598E7FF2C00D043E787E70A00FF24B6
:1017D000002316E7002C15D1002B57D1FF28E6D1A6
:1017E0004B467BE7002C20D1002B57D049460029DF
:1017F00053D04B445A0168D50724364A1C40012572
:101800001340EAE6FF28EBD08022D204764213434D
:101810001B2E53DC2025AD1B1A00AB40F2405C1E92
:10182000A34113434B44050021E7002BD8D0494680
:10183000002900D152E78021C9030F4200D14DE7B2
:101840006046084200D049E74B4647E74846FF2537
:10185000002800D14FE78022D203174204D060460F
:10186000104201D14B46884601224146FF250A40DD
:1018700041E7484600281FD01A1A500120D54A4691
:101880000724D31A1C4088460025A6E6741CC9D03C
:10189000F643FF28BCD14B4620E799464B4600252E
:1018A000DB082BE7012340E700220023A9E6802381
:1018B0000022DB03FF24A4E600251CE70123B1E797
:1018C000002AF1D013000025FCE60025FAE6C04608
:1018D000FFFFFF7DFFFFFFFB42024B02400049007C
:1018E000520A5B0A090E000EFF2806D00020FF29CD
:1018F00002D11800431E98417047FE38002AFBD1E0
:10190000F4E7C04641024200C30F490A120E00200C
:101910007E2A0DD99D2A0CD8802000040143952AE7
:101920000ADC9620821AD1404842002B00D10800E0
:101930007047034A9818FBE7963A9140F4E7C0468F
:10194000FFFFFF7F70B500283DD0C317C5185D406D
:10195000C40F2800FEF798FF9E22121A962A07DC71
:10196000D2B2082833DD083885406802400A23E0F7
:10197000992A0BDD052329001B1AD94003001B33CC
:101980009D402B005D1EAB4119430D00052801DD74
:10199000431F9D402B000F490B406E0709D00F26B7
:1019A0003540042D05D004335D0102D59F220B4044
:1019B000121A9B01580AD2B24002D205400AE4072B
:1019C0001043204370BD002400220020F4E7680289
:1019D000400AF1E7FFFFFFFB70B5041E34D0FEF7AD
:1019E00053FF9E22121A962A07DCD2B208282EDD57
:1019F000083884406002400A21E0992A09DD03008A
:101A000021001B3399404B1E994105231B1ADC40D2
:101A10000C43052801DD431F9C4023000D490B406A
:101A2000650709D00F252C40042C05D004335C0138
:101A300002D59F220B40121A9B01580AD2B24002D3
:101A4000D205400A104370BD00220020F7E7600273
:101A5000400AF4E7FFFFFFFBF0B54F464646D64687
:101A60000C000903C0B5490A470F5E0039431F0344
:101A7000DB0F9C4665007B0A570F1F436D0DE40F7B
:101A8000760DA146C000B846D200AB1B64457BD0A2
:101A9000002B5FDD002E00D0A4E03E00164300D1F5
:101AA00012E15E1E002E00D09EE1871A4346B84226
:101AB00080410125C91A4042091A0B0200D431E1C4
:101AC00049024E0A002E00D16EE13000FEF7DCFE26
:101AD0000300083B1F2B00DD61E120223900D21AF0
:101AE0009E40D1409F400E439D4200DD51E15D1B71
:101AF0006B1C1F2B00DD7CE12021C91A3D0030004A
:101B00008F408840DD40791E8F41310007222843F5
:101B1000D940002507433A40002A09D00F233B4013
:101B2000042B05D03B1DBB42BF417F42C9191F009A
:101B30000B0200D426E26A1CC64B55056D0D9A4275
:101B400000D106E1C44AFF080A40530752023B4352
:101B5000120B8EE0002B00D0B8E06B1C5B055B0D18
:101B6000012B00DC30E1871A4346B842B641CB1A5C
:101B700076429E1B330200D54CE13B003343A1D19A
:101B800000220024002570E0002B00DCE5E0002EA0
:101B900000D183E0AF4EB54260D080263604374393
:101BA000B846382B00DC3EE1434613431F007A1E43
:101BB00097413F1887428041404209180B0200D4E8
:101BC000B0E0A44B01359D4200D1C3E0A24A7B089E
:101BD0000A4001210F401F435108D30707221F432A
:101BE0003A4099E79B4EB54238D0802636043743B9
:101BF000B846382B00DDDCE01F2B00DC30E11E0096
:101C00004746203EF740BC46202B04D04026F31A1E
:101C100046469E403243170063467A1E97411F4353
:101C2000CCE0002B00D104E24346134300D159E13C
:101C30004B07C00818438023C9081B03194208D06A
:101C40004546ED081D4204D14346D00859070843D4
:101C50002900420FC9007F4D1143C0004B07CA083D
:101C60007C49C00803438D4268D012036D05120BF6
:101C70006D0D002112031800130B0A0D12051A43F3
:101C8000764B2D0513402B435B00E4075B08234391
:101C900019001CBC90469946A246F0BD3E00164372
:101CA00012D05E1E002E00D000E1871887428041CE
:101CB00041444042091801250B0233D5022585E72E
:101CC00064463300414610001D00C7E7002D00D0D8
:101CD000DAE00C000443F3D05C1C00D19FE15D4CC2
:101CE000A64200D12FE1DB43382B00DD66E11F2B3C
:101CF00000DD83E120240500E41A0F00DD40D94017
:101D0000A0404346A7405B1A441EA04198462F437B
:101D10003843171ABA42924143465242991A6446CE
:101D20003500CAE607223A40002A00D0F6E64B0703
:101D3000CA084849FF083B438D4296D11900114318
:101D400000D19EE1802109030A431203120B414D89
:101D50008FE71500002200238BE7002B00D0C7E09F
:101D60006B1C5F057F0D012F00DCF1E0394DAB42AC
:101D700000D1B9E085180A008542894142444942B0
:101D800051180722CF076D082F4349083A401D001C
:101D9000C2E607223049ED1A31403A40BCE63E0027
:101DA0002838864000279FE63800FEF76DFD20307A
:101DB0008EE6434613431F007A1E9741C71BB84265
:101DC00080414042091A78E60E003B000643134367
:101DD000002D61D1002E00D0F4E0002B00D11BE1DA
:101DE00064463900100039E71A4FBB427AD03300FD
:101DF000FFE630001F3DE840202B03D04021CB1AE6
:101E00009E4037437B1E9F41072207433A400021F3
:101E1000002589E7171A4346BA42B641591A764255
:101E20008E1B64464EE61F2B00DDADE020264746A4
:101E3000F61AB740B9461700B246DF404E463E4359
:101E400037005646B240561EB24117434246DA406A
:101E50008918AEE6FF070000FFFF7FFFFFFF0F803E
:101E600020264746F61AB740B9461700B246DF406B
:101E70004E463E4337005646B240561EB2411743C7
:101E80004246DA40891A99E77F4CA6425BD080240B
:101E900024045B42214327E7002E0CD1002B00D104
:101EA000CBE0644639001000774DD7E6764FBB4251
:101EB00018D0330075E6002B14D04B07C008184328
:101EC0008023C9081B03194207D0FC081C4204D117
:101ED0007907D0080843E14621004C46420FC9006B
:101EE0001143C000684DB9E61D0000220023C0E682
:101EF000002D5BD10D00054300D1E2E65D1C00D151
:101F0000B0E0614DAE421FD0DB43382B71DC1F2B9C
:101F100000DD96E020250F00ED1AAF40B94607001E
:101F2000AA46DF404D463D432F005546A840D940C4
:101F3000451EA84188440743BF1897429241514229
:101F4000414435003AE6644635004146100085E6D6
:101F50000B000343002D00D063E6002BF5D0434671
:101F6000134300D17AE68718874280410722414413
:101F7000404209183A400B0200D4D5E6434B0135E4
:101F80001940C9E5380069E61E004746203EF74083
:101F9000BC46202B04D04026F31A46469E403243CE
:101FA000170063467A1E97411F4302E6364DAE4244
:101FB000CAD080252D045B422943A6E70843411E71
:101FC0008841A6E6002B00D148E6871A4346B8426E
:101FD000B641CB1A76429E1B33024BD5171A4346A5
:101FE000BA429241591A5242891A072264463A402B
:101FF00092E501430F00791E8F419DE71C000F0001
:10200000203CE740202B03D04024E31A99400843AA
:10201000411E884138437CE60022002425E6171A39
:102020004346BA429241591A5242891A64463500CF
:1020300043E541461000144D10E6802200241203AF
:1020400080E61D000F00203DEF40BC46202B03D052
:102050004025EB1A9940084307006346781E8741E4
:102060001F4369E7871897429B4141445B42C91867
:102070003500A3E53B003343CED0072231003A4080
:1020800052E600231A00F4E5FF070000FFFF7FFF80
:10209000F0B55746DE464E464546E0B58346070056
:1020A0000E03480085B092461C00360B400DCD0F44
:1020B000002800D19DE0954B984239D08023F6004E
:1020C0001B041E43924A7B0F3343994694460300F8
:1020D0006344009300230026FF00029323031B0B9D
:1020E00098466300E40F52465B0D019400D1B3E0C3
:1020F00086498B4200D19EE04246D10080221204E4
:102100000A435146490F11438B46814952468C463A
:1021100000996344CB1A0021D20000932B00634046
:102120009A460F2E00D905E17A4BB6009B599F467F
:102130005B463343994600D0B8E0022308260027C7
:1021400000900293CAE7CB463A0002990195019BA1
:102150009A46022927D0032900D180E2012944D0E0
:102160006D49009B8C4663441C00002C38DD5307EE
:1021700000D013E2D2085B46DB0109D55946674B14
:1021800019408B468021C9008C46009B63441C008B
:10219000634B9C4207DC5B4664055F075B021743A9
:1021A0001B0B620D02E000230027584A00211B038D
:1021B0001C0B0B0D1B05234314055A4A3800134012
:1021C0001C4353466400DB0764081C43210005B030
:1021D0003CBC90469946A246AB46F0BD0122524215
:1021E00001231B1B382B00DCADE10022002300275C
:1021F000DCE75B46334399465ED0002E00D18AE18E
:102200003000FEF741FB03000B3B1C2B00DD7BE1A4
:102210001D22D31A5A460100DA4008398E401300B5
:102220005F46334399468F403F4B00261B1A00936D
:102230000023029352E7414653460B433B499B46DA
:102240008C46009B634400935B46002B3BD10223EA
:1022500000221E43022161E7434613439B4637D0C9
:102260004346002B00D162E14046FEF70DFB030020
:102270000B3B1C2B00DD53E102004146083A914024
:1022800088461D21CB1A5146D9400B0041460B43CD
:102290009B46534693401A00009B25499C46604448
:1022A00003008C4663440093002137E70323B146C3
:1022B00000900C26029311E70023009301330426BB
:1022C000002702930AE70323C3461E43032125E7A1
:1022D00001331E430022012120E700239A46802378
:1022E00000271B03094A61E7802349461B03194263
:1022F00000D1E2E05946194200D0DEE00B431B0357
:1023000017001B0BA246014A50E7C046FF0700001A
:1023100001FCFFFFF8ED0210FF030000FFFFFFFECE
:10232000FE070000FFFF0F800DFCFFFF01F8FFFF1D
:10233000F3030000D94500D9CBE000D1C6E03C0052
:1023400048460027009B013B00935B46160E1B028C
:102350001E431302984633041B0C9946310C01911D
:10236000FEF712F94A4642430B04210C05001943BB
:102370008A4207D98919013D8E4203D88A4201D980
:10238000851E8919881A0199FEF7FEF809048C4602
:102390004A46210464464243090C030021438A4211
:1023A00004D98919013B8E4200D8F1E02D041D4368
:1023B000AB464346891A4246280C12041D0C5B4664
:1023C000140C22001B041B0C5A4303946B4344431C
:1023D000029568431B19150CEB189C4203D9802405
:1023E0006402A44660441C0C15041B042D0C201828
:1023F0005D19814277D373D00C1AA24A7D1BAF427C
:10240000BF419446009B7F426344E01B1C00864210
:1024100000D1DBE00199FEF7B7F84A4642430B04CE
:10242000290C070019438A4207D98919013F8E42B6
:1024300003D88A4201D9871E8919881A0199FEF7A3
:10244000A3F809044A46894629044D464243090C2B
:10245000030029438A4207D98919013B8E4203D8D8
:102460008A4201D9831E89193F04891A3A00039FC1
:102470001A43380013041B0C584381460298150C6C
:102480006F43434345434846000C8446DB1963448D
:102490009F4203D9802040028446654448461F0C71
:1024A00000041B04000C7D191818A94200D284E016
:1024B00000D17FE001231A4357E680234A461B03DD
:1024C00013431B031B0BAA466F4A6FE6BA4200D99F
:1024D00035E74B46DC0758087B081C43FF0734E709
:1024E0000024AF4289D247444745A4415B46644239
:1024F000A4196418013BA6421ED2A0426DD800D197
:10250000B6E0241A9B4678E703005A46283B9A40D7
:102510000027914688E65846FEF7B6F9203072E665
:1025200003005246283B9A4093460022B4E65046A8
:10253000FEF7AAF920309AE6A642E2D1B845DCD9E6
:10254000341A9B4659E71F2B65DC504C0099A44672
:102550005C46614408008C4011008240D940501E06
:1025600082410C4314435A46DA401300620709D0F3
:102570000F222240042A05D02200141D94428941D2
:1025800049425B181A0262D50122002300270DE69A
:102590008A4200D80AE7831E891907E70F231340F0
:1025A000042B00D1E6E5171D9742924153429B440C
:1025B000FA08E0E5002800D1D7E57118531EB142B2
:1025C00027D3A94215D358D01A0073E7002B00DC9B
:1025D00004E6012300229B44CDE5022347444745FE
:1025E00089415B429C46494289190C19E344241AEB
:1025F00003E743465F0047459B41B8465B429E194F
:10260000023A8919A94200D054E7404500D051E769
:10261000ABE51A00F6E71F215F4649420C1BE74075
:10262000202B07D01A49009B8C46634418005B4658
:1026300083401A43501E82413A4307270023174024
:1026400009D00F21002311401400042995D1220044
:102650005F075B021B0BD20817430022A6E580230D
:1026600059461B030B431B0317001B0B064A9DE532
:10267000BD42B2D89B460024BFE68045B9D31A00BC
:10268000C3E7C046FF030000FF0700001E04000070
:102690003E040000F0B54F464646D6468446C0B5D7
:1026A0008046194E18030F034D00000B5C00824654
:1026B0003F0B6D0DC90F9146640DDB0F0120B54234
:1026C0000AD0B44203D0A54201D157450CD01CBC5E
:1026D00090469946A246F0BD66463E43F7D1AC42CD
:1026E000F5D154461443F2D10120C845EFD19942A7
:1026F00007D0002DEBD163461F433800471EB84179
:10270000E5E70020E3E7C046FF070000F0B54F46CD
:102710004646D6464D00C0B50E03C90F8A462C4921
:102720001F035C008046360B6D0D91463F0B640D18
:10273000DB0F8D421ED08C4216D0002D1ED13043AF
:102740008446002C01D13A4323D06246002A1AD095
:102750009A4529D0514602200139084001381CBC55
:1027600090469946A246F0BD39001143E5D00220BB
:102770004042F4E73043FAD1AC420FD0002C0FD1E5
:102780003A43E7D00CE00122013B934318000130AB
:10279000E5E763460020002BE1D0DBE73A43E6D1D2
:1027A0009A45D7D1A542D5DCA54205DBBE42D1D89A
:1027B00008D00020BE42D2D25046012301389843AF
:1027C0000130CCE7C845C5D80020C845F4D3C6E7DA
:1027D000FF070000F0B54F464646D6464D00C0B54F
:1027E0000E03C90F8A462E491F035C008046360B34
:1027F0006D0D91463F0B640DDB0F8D4218D08C425E
:1028000011D0002D18D130438446002C1ED13A43FC
:102810001CD163460020002B30D0514602200139E4
:10282000084001382AE039001143EAD0022025E0AF
:102830003043FBD1AC4226D0002C26D13A4324D1E0
:102840005146022001390840013817E06246002A4B
:102850000FD09A45E1D1A54205DBBE42DDD819D0A3
:102860000020BE420AD2504601230138984301306D
:1028700004E00122013B9343180001301CBC904648
:102880009946A246F0BD3A43D0D19A45C5D1A5425A
:10289000C3DCE0E7C845C0D80020C845E3D3EDE776
:1028A000FF070000F0B55746DE464E464546E0B508
:1028B000834606000F03480087B092461D003F0B79
:1028C000400DCC0F002800D16FE0DE4B984238D08D
:1028D0008023FF001B041F43730F3B430193DA4B1C
:1028E0000027994600239B46F60081442B0369008C
:1028F0001B0B52469846490DED0F002900D185E08B
:10290000D04B994200D173E04346DA0080231B0488
:1029100013435246CC48520F84461343524600207C
:102920006144D20089442100694000918C46012114
:1029300049448A460F2F00D990E0C449BF00CF59BF
:10294000BF465B463B43019300D06AE10223082760
:10295000002681469B46C9E732005846019B6146E6
:102960000091022800D175E0032800D1FEE1012882
:1029700000D02CE100230027002600253F032A0D6C
:102980003F0BB34812053A4302401B051343009A1C
:102990005B00D1075B080B433000190007B03CBC5B
:1029A00090469946A246AB46F0BD5B463B43019339
:1029B00000D12FE1002F00D1A5E13800FDF764FF21
:1029C00003000B3B1C2B00DD96E11D22D31A5A4657
:1029D0000100DA405E4608398F4013008E403B43C9
:1029E00001939C4B00271B1A994600239B467DE7C9
:1029F000414653460B4393498C46E144002B00D09B
:102A00001AE102220220174300228CE7134300D16F
:102A10000DE14346002B00D181E14046FDF734FF34
:102A200002000B3A1C2A00DD72E10100434608391E
:102A30008B4098461D239A1A5346D3401A004346AA
:102A4000134352468A404946081A824989468144BE
:102A5000002068E77B4B002700268EE7140C120449
:102A6000120C1100370C3604350C794328008C46C3
:102A70002E0060436044834656432100300C80465C
:102A80005846794340440291844506D988468021BE
:102A900049028C46E044414602913604010C360C52
:102AA00000048B4681191E0C1B041B0C039119009A
:102AB00079438C46280075436544A8465843050C65
:102AC00045447743A94203D9802149028C46674493
:102AD000290C8C4639000004000C2D042D1861448B
:102AE000AB4405915946049101990F043F0C080C21
:102AF000390051434243904602008C46090C8B46F4
:102B000062437C4344445C44A04503D9802149028C
:102B100088464244210C884661460904090C8C46CB
:102B200039005943434370437E430F0CF618240485
:102B3000BE19644442448C46B34203D980235B02ED
:102B400098464044029B61469846049B37044344A0
:102B50009B46AB45AD416B420D0405992D0C8C464F
:102B60007F196744FD18A8465D462D19A542A4416A
:102B700093466442A446C344DC448F42BF41984517
:102B80009B4193459241A445A4415B427F421F4330
:102B9000360C52426442BF192243BF1862463818AD
:102BA0004302D20D039913436A020A43501E824125
:102BB0006146ED0D2A434E023243D90100D4B3E001
:102BC0000126500832400243DE0732435B08224CA4
:102BD0005444002C62DD510709D00F201040042816
:102BE00005D0101D9042924152429B180200D9011B
:102BF00004D580241948E400034054441848844212
:102C000000DD27E75E075B02D2081F0B6305164352
:102C10005B0DB2E6002399460133042700269B464C
:102C200064E60323019781460C279B465EE601225A
:102C300001201743002276E6032303201F43434667
:102C400071E6C046FF07000001FCFFFF38EE0210EE
:102C5000FFFF0F800DFCFFFFFF030000FFFFFFFEE3
:102C6000FE0700000023802700933F030026434B0C
:102C700083E6019B3200A446584670E6AC466EE6F9
:102C8000802701993F0339422DD03B422BD11F436E
:102C90003F033F0B00951600384B6EE601252D1BB8
:102CA000382D00DD66E61F2D40DC35481C00504401
:102CB000160082408440EE40501E8241344314434B
:102CC000EB40620709D00F222240042A05D02200DF
:102CD000141D9442804140421B181A023ED5012324
:102CE0000027002649E68027019B3F031F433F033F
:102CF0003F0B0094214B40E603005A46283B9A4084
:102D0000002601926DE65846FDF7BEFD203057E6DD
:102D100003005246283B9A401300002293E6504697
:102D2000FDF7B2FD20307BE6CA4650E71F201E00AB
:102D30004042041BE640202D03D0124C5444A340D3
:102D40001A43501E8241324307260027164009D0FD
:102D50000F200023104014000428B9D122005E0780
:102D60005B021F0BD2081643002306E680273F03B1
:102D70001F433F033F0B1600004BFEE5FF0700001B
:102D80001E0400003E040000F8B557464E46454676
:102D9000DE460C000903E0B5490A460F5F003143E7
:102DA0001E03DB0F760A9B46530F3343C84E650064
:102DB000C000E40FD2006D0DA24681467F0D9C46F7
:102DC0009046B74200D1B9E05B46012673409B466E
:102DD000EE1BA34500D183E0002E63DD002F00D061
:102DE000B1E06346134300D123E1731E002B00D0F2
:102DF000BAE1861A6346B04280410125C91A4042B1
:102E0000091A0B0200D447E149024B0A984643468F
:102E1000002B00D189E14046FDF736FD0300083B59
:102E20001F2B00DD7CE120223000D21A4146D04029
:102E3000994002009E400A439D4200DD6AE15D1B0D
:102E40006B1C1F2B00DD94E1202110003500C91AF6
:102E50008E40DA408840DD40711E8E41110007220D
:102E60002843002506433240002A09D00F2333406F
:102E7000042B05D0331DB342B641764289191E009A
:102E80000B0200D43DE26A1C914B55056D0D9A4230
:102E900000D119E18F4AF6080A405707520237431A
:102EA000120B9BE0002E00D0C5E06E1C7605760D5F
:102EB000012E00DC48E16746861ACB1BB042BF41B9
:102EC0007F42B8461F004346FF1A3B00B8461B022C
:102ED00000D55FE137439AD100220024002579E034
:102EE000002E00DCFAE0002F00D18DE0784B9D42EF
:102EF00067D0802367461B041F43BC46382E00DC86
:102F000052E1634613435A1E93411E188642804184
:102F1000404209180B0200D4BEE06D4B01359D42C2
:102F200000D1D2E06B4A73080A4001210E401E43D3
:102F30005108D30707221E43324095E71E0016436F
:102F400000D045E740E7624B9D423AD08023674678
:102F50001B041F43BC46382E00DDEBE01F2E00DCB7
:102F60003AE133006746203BDF403B00202E05D08E
:102F70004027BF1B6646BE40324390464646721EFF
:102F800096413343DAE0002B00D114E26346134349
:102F900000D168E180234E07C008C9081B0306431F
:102FA000194208D06046C008184204D163460100A7
:102FB000D2085E071643F3009946C900720F444DCC
:102FC00011434B46DE08424B4F073743CA089D4228
:102FD00000D16EE012036D05120B6D0D002112037E
:102FE000130B0A0D12051A433B4B2D0513402B43BF
:102FF0005B00E4075B082343380019003CBC9046A3
:103000009946A246AB46F8BD6346134311D0731EE2
:10301000002B00D007E1861886428041614440427F
:10302000091801250B0237D502257BE73E006146D2
:1030300091463500C5E75C46002D00D0E1E00B006D
:103040000343F3D0731C00D1ACE1214B9F4200D16C
:103050003AE1F343382B00DD6FE11F2B00DD8CE1FB
:1030600020250E00ED1AAE40B0460600AA46DE400E
:10307000454635432E005546D940A8406346451E77
:10308000A8415B1A9C463043161AB24292416346ED
:103090005242991A3D00B4E607223240002A00D07D
:1030A000E4E60B4BF6084F073743CA089D4200D0B1
:1030B00090E73B00134300D1A6E180231B031A4392
:1030C0001203120B024D89E715000022002785E745
:1030D000FF070000FFFF7FFFFFFF0F80002E00D0E3
:1030E000C7E06B1C5E05760D012E00DCF0E0C84DDC
:1030F000AB4200D1B9E085180A008542894162449B
:10310000494251180722CE076D082E434908324024
:103110001D00A9E6BF49ED1A114007223240A3E67F
:10312000320028388240002686E63000FDF7ACFBEE
:10313000203073E6634613435A1E9341C61AB042C9
:1031400080414042091A5CE60E0067460643174379
:10315000002D5ED1002E00D0F3E0002F00D11EE143
:103160005C46614691462CE7A94FBE427BD01E00CB
:10317000F1E610001F3DE840202B03D04021CB1A80
:103180009A401643731E9E41072206433240002197
:10319000002583E7161A6346B2428041591A40421D
:1031A0000B1A98465C4632E61F2E00DDABE0202766
:1031B000BB1B9A4663465746BB40994613004F4691
:1031C000F3401F433B005746BA40571EBA411343D2
:1031D0006246F240891898E62027BB1B9A46634650
:1031E0005746BB40994613004F46F3401F433B00F0
:1031F0005746BA40571EBA4113436246F240891AF5
:103200009CE7834B9F425FD080252D047342294366
:1032100020E7002E0CD1002F00D1D0E05C466146A3
:1032200091467B4DCDE67A4FBE421CD01E0065E62E
:10323000002F18D0C0084E0706438020C90800039D
:10324000014208D06346DC08044204D12100DA467A
:10325000D2085E071643F300994601245346C9007D
:10326000720F11431C406A4DABE61D00002200277F
:10327000B4E6002D59D10B00034300D1D6E6731CF0
:1032800000D1B2E0624B9F421ED0F343382B6FDC7B
:103290001F2B00DD97E020250E00ED1AAE40B04652
:1032A0000600AA46DE40454635432E005546A84056
:1032B000D940451EA8418C440643B6189642924117
:1032C000514261443D0025E63D006146914678E665
:1032D0000B000343002D00D055E6002BF5D06346CC
:1032E000134300D16DE68618864280416144404216
:1032F000091800220B0200D4D0E6464B01351940D4
:10330000B2E5B1465DE633006746203BDF403B0057
:10331000202E05D04027BF1B6646BE403243904654
:103320004646721E96413343EFE5394B9F42CBD060
:1033300080252D0473422943A8E70843411E884194
:10334000A2E6002F00D13CE66346861ACF1AB042AF
:103350009B415B42FB1A98461B024ED5161A6346E8
:10336000B2429241591A5242891A5C4600227BE5C8
:1033700001430E00711E8E419FE71D000E00203D8F
:10338000EE40B046202B04D04025EB1A994008436C
:10339000814648464346411E8841184374E6002250
:1033A000002417E6161A6346B2429241591A524255
:1033B000891A3D0025E561469146154D01E68022BA
:1033C0000024120379E61D000E00203DEE40B046B9
:1033D000202B04D04025EB1A9940084381464E46E5
:1033E0004346711E8E411E4367E7861896429B41F5
:1033F00061445B42C9183D008CE547463743CED057
:1034000007224146324049E600273A00E6E5C04639
:10341000FF070000FFFF7FFF70B50C4E0D031C037C
:1034200049005B002D0B490D240B5B0DB14208D008
:10343000064900208B4203D114432000441EA041C2
:1034400070BD05430120002DFAD1F1E7FF07000010
:1034500030B5144D0A034B00120B5B0DC90F00244D
:10346000AB4211DD104CA34210DC802464032243E4
:103470000E4CE41A1F2C0CDD0D48C31ADA40130061
:103480005C42002900D11C00200030BD094BCC1843
:10349000FAE7094DE040AC4663449A401300034309
:1034A000EEE7C046FE0300001D04000033040000E8
:1034B00013040000FFFFFF7FEDFBFFFF70B5002846
:1034C0002DD0C317C5185D40C40F2800FDF7DCF9E7
:1034D000154B1B1A5B055B0D0A2815DD0B38854063
:1034E00000222D032D0B002110002D030A0D2D0BA2
:1034F00012052A430D4D1B052A4013435B00E407C8
:103500005B082343190070BD020029001532914069
:103510000A000B21081AC5402D032D0BE3E70024F8
:10352000002300250022DEE71E040000FFFF0F80BD
:1035300010B5041E25D0FDF7A7F9144B1B1A5B0527
:103540005B0D0A2812DD0B38844000222403240B73
:103550000021100024030A0D240B120522430C4CF9
:103560001B05224013435B00590810BD02002100D7
:10357000153291400A000B21081AC4402403240B81
:10358000E6E7002300240022E2E7C0461E04000014
:10359000FFFF0F804100090E4B1C70B5DBB24602E5
:1035A000750AC40F012B14DDE0239B006D07360B59
:1035B000CB1800210A0D280012051C4D32435B0573
:1035C0002A405B0813435B00E4075B0823431900B0
:1035D00070BD002914D1002D1ED02800FDF754F92C
:1035E0000A281CDC0B232A001B1ADA4003001533BF
:1035F0009D400F4B12031B1A5B05160B5B0DD8E7A2
:10360000002D06D0320B802636036D071643094B7A
:10361000CFE7084B0026CCE700230026C9E70300CC
:103620002A000B3B9A400025E3E7C046FFFF0F80CE
:1036300089030000FF070000F0B54C00640D0B0388
:10364000621C5B0A460F5205C90F1E43C500520D8E
:10365000012A29DD374BE718FE2F1CDC002F3BDD4C
:103660008001431E98410722F3006D0F03432B4353
:103670001A40002A04D00F221A40042A00D0043332
:103680008022D2041A4024D00137FAB2FF2F02D090
:103690009B01580A01E0FF2200204002D205400AA7
:1036A000C90710430843F0BD3543002C04D1002D59
:1036B0000AD100220020F0E7002DECD08020C003CA
:1036C0003043FF22E9E7002400235B02580AE2B2FC
:1036D000E3E7DB083C00F8E73B001733F3DB80232C
:1036E0001B0433431E26F61B1F2E14DD02225242FA
:1036F000D71B1A00FA401700202E04D00E4A944619
:103700006444A3401D432B005D1EAB4107223B4395
:103710001A400027ADE7094A2800A21895409340B7
:103720006C1EA541F04007222B4303431A4000279B
:103730009FE7C04680FCFFFFA2FCFFFF82FCFFFF6B
:1037400010B5002903D1FDF79FF8203002E0081CD6
:10375000FDF79AF810BDC046F0B54E465746DE4616
:103760004546E0B50F00002183B006008946002FD2
:1037700006DA3900002746428F4101214942894635
:10378000002B07DA4946C943100089461900002377
:1037900042428B4134003D0092469846BB4269D874
:1037A00066D041465046FFF7CBFF834639003000D4
:1037B000FFF7C6FF5B461B1A9C46203B9B4600D585
:1037C00075E05146584681400B00514660468140A5
:1037D0000A00BB4261D85ED034003D005946A41AAD
:1037E0009D41002900DA7AE00021002001260090A6
:1037F000019159468E400196614601268E406146F0
:103800000096002950D0D90756085F080E4363463A
:103810000EE0AF4201D1A6420CD8A41BBD4101214C
:1038200024196D410022013B64185541002B06D03C
:10383000AF42EED9013B24196D41002BF8D100981D
:1038400001995B4600196941002B3DDB2E00DE40EB
:1038500063462C00DC405B46002B4BDB34005D46AE
:10386000AC4023006446A6403200801A994103E030
:10387000B24296D9002000214B46002B04D0030011
:103880000C0000215842A14103B03CBC904699462F
:10389000A246AB46F0BDB1429ED900210020009067
:1038A000019161460029AED100980199E4E72023F7
:1038B000624651469B1AD940404600916146884075
:1038C000030000990B4380E7624620239B1A2A00DD
:1038D0009A40260013006246D6401E43B8E7614670
:1038E00020260127761A00200021F7400090019140
:1038F000019781E76746202362463500BC409B1A4A
:10390000DD4023002B43ADE7024670B50A43920722
:103910002AD11E4DEE0104C808C9541B94433440FB
:1039200017D0D0B2D9B2401A2106014310D190B2BB
:1039300099B2401A210401430AD110021902000A67
:10394000090A401A2102014302D1100E190E401A31
:1039500070BD9A42DFD010BA19BA884201D901204D
:1039600070BD0020C04370BD02780B78013001317A
:10397000002A09D09A4207D102780B780130013130
:10398000002A01D09A42EFD0D01A70BD0101010186
:0E39900010B50400083010F051F8200010BDF2
:1039A00010B50800FFF78AFD054A064BFEF77AFFBF
:1039B0000022054BFEF76CFBFFF73EFE10BDC04634
:0C39C00004560E2DB2DD134000C89940E3
:1039CC0010B50830084A4821040010F038F80028D7
:1039DC0004D10649064814F0DDF9FEE780212000E9
:1039EC00C90010F03EF810BDA82000208AEE02108D
:0439FC00502900202E
:103A000010B5002903D0012905D0002002E00830BC
:0E3A100010F095F810BD083010F0A1F8FAE79C
:103A2000F8B50D000400FFF7EBFF6D0064190422E8
:103A3000A35E181AFFF742FD06000023E05E0F00A8
:103A4000FFF73CFD0022064BFEF722FB02000B00B5
:103A500030003900FEF726FFFFF7FAFCF8BDC0463C
:043A600000408F4053
:103A640070B5104E1049300014F0D8FB0F4D104CB7
:103A74002A00210030001AF06BFF0E4E0E49300070
:103A840014F0CCFB2A00210030001AF061FF0B4E29
:103A94000B49300014F0C2FB2A00300021001AF058
:103AA40057FF70BD502B002078EE02104802002012
:103AB40083810110C02A002082EE0210802B002096
:043AC4007FEE02107F
:103AC800054B10B55A40C4684900101C9A4200D9E9
:0C3AD800181C085310BDC046FF0F000072
:103AE400F7B50192026905000C1C0092081C002B1A
:103AF40013D0101CFFF74CFD0022184BFEF7D0FE2C
:103B04000600201C0F00FFF743FD02000B003000ED
:103B14003900FDF79FFFFFF78DFD0099FDF70CFAC3
:103B24000F49FDF7E1FBFFF733FD00220B4BFDF7D7
:103B340091FFFFF78BFCFE21019BAA6806005B0046
:103B44008905201C9D5EFCF793FE431E98410127C6
:103B540040420740E819801980B2FEBD0000E03FF2
:043B640000F07F45A9
:103B680070B50500D4B22200FFF7B8FF2B68020039
:0A3B7800DB6828002100984770BDAB
:103B8400C3684900CB5A0248C01A80B27047C04685
:043B9400FF0F00001F
:023B9800704774
:103B9A000300143307B54360103383601033C360E6
:103BAA00016103230021443000911A0010F0B9FA90
:023BBA0007BD45
:0E3BBC0010B5040054211BF019F9200010BDB3
:103BCC00074B13B50833036000230400009308224D
:103BDC0009330721443010F079FA200016BDC04695
:043BEC00A4EE021031
:103BF00070B50D000400FFF767FF2B00200018339D
:103C00005B00E31829009A88443010F0DBFA70BD9D
:103C100010B500230170020001000400C3672832C0
:103C20001231503408C20B800231A242FAD110BDC9
:0C3C300010B5040014F0BEFEA06710BD2B
:103C3C00F7B504000127FFF7F5FF677007F0ECFC00
:103C4C00051E44D0002600976368009AF340134287
:103C5C001CD003227300E318A5195F8A2B7A7243D8
:103C6C00012B17D0002B05D0022B23D0009801F08C
:103C7C0027FA0BE0AD18A36FAA6A934206D92078F5
:103C8C0031000AF09BFAA36FDF19AF620136082EE0
:103C9C00DAD1F7BDAD182B6D002B03D12078310094
:103CAC000AF08CFA2B6DBB4202D201332B65EDE787
:103CBC000023FBE76421002013F0C6FE6423DF1B06
:103CCC00B842E3DD207831000AF078FADEE705F03F
:103CDC000FFD0028DDD00097274FAE00F7190B2100
:103CEC0038680CF06DFB0C21019038680CF068FB07
:103CFC002B0062680833DA401300009A0700134265
:103D0C001CD006F0BBFBA84218D16B461B79FFB246
:103D1C00012B17D0002B05D0022B20D0009801F0DE
:103D2C00CFF90BE0A619A36FB26C934206D9207899
:103D3C00290005F015FEA36FDF19B762012DA8D07D
:103D4C00009DC9E7A619336F5A1C3267BB42F5D9DF
:103D5C002078290005F004FE00233367EEE7642188
:103D6C00002013F071FE6423DF1BB842E6DD2078DF
:0C3D7C00290005F0F5FDE1E744040020FB
:063D8800002343707047A8
:063D8E00002343607047B2
:103D940030B504008BB0144904A814F03FFA0A2289
:103DA400217801A814F067FA01A904A814F0A2FB71
:103DB4000E4914F0ACFB05000A22616807A814F050
:103DC4008FFA07A9280014F095FB0100084813F0A6
:103DD400DBFF07A814F0D3F901A814F0D0F904A864
:103DE40014F0CDF90BB030BDDCEE0210E5EE02109C
:043DF4005029002032
:103DF80070B504000D008AB0334914F00DFA334948
:103E0800200014F056FB324904A814F005FA29786A
:103E18000A2201A814F02DFA01AA04A907A806F09D
:103E280013FD07A9200014F032FB07A814F0A5F928
:103E380001A814F0A2F904A814F09FF9254E200057
:103E4800310014F036FB244904A814F0E5F9697828
:103E58000A2201A814F01EFA01AA04A907A806F06C
:103E6800F3FC07A9200014F012FB07A814F085F949
:103E780001A814F082F904A814F07FF93100200099
:103E880014F017FB154904A814F0C6F969680A224A
:103E980001A814F023FA01AA04A907A806F0D4FC83
:103EA80007A9200014F0F3FA07A814F066F901A88E
:103EB80014F063F904A814F060F90949200014F01B
:103EC800F8FA20000AB070BDCAEE0210BCEE02106B
:103ED800BFEE0210C8EE0210CBEE0210D1EE0210B7
:043EE800D9EE0210FD
:103EEC0070B501230D0004004168AB40002A1DD0C1
:103EFC000B4343606378012B13D107F081FB00283F
:103F0C0003D1207829000AF059F96378012B08D1E4
:103F1C0005F0EEFB002804D029002078083905F0C4
:103F2C001FFD6368002B00D1637070BD9943416025
:023F3C00E0E7BC
:103F3E0070B51E0043181A720B0005000C000833F2
:103F4E005B00C3185E80FFF76CFEAB6F0A349E19E0
:063F5E00A400665170BDD5
:043F64000020704782
:023F68007047A0
:0C3F6C000022014B1A7070471CA90020B5
:023F7800704790
:023F7A0070478E
:0C3F7C0010B5040014F0FFF8200010BD88
:103F880010B50A4C2000303014F0F7F82000243027
:103F980014F0F3F82000183014F0EFF820000C307B
:103FA80014F0EBF8200014F0E8F810BD803C002075
:103FB80010B5024814F0E1F810BDC046C83C002016
:103FC80070B5054D054C0C3D20000C3C14F0D5F89F
:103FD800AC42F9D170BDC04674710020EC7100206C
:103FE80010B5024814F0C9F810BDC046BC3C00200A
:103FF80010B5024814F0C1F810BDC046743C00204A
:1040080070B5054D054C0C3D20000C3C14F0B5F87E
:10401800AC42F9D170BDC046D06F00204870002076
:1040280070B5054D054C0C3D20000C3C14F0A5F86E
:10403800AC42F9D170BDC046D87000205071002044
:1040480070B5054D054C0C3D20000C3C14F095F85E
:10405800AC42F9D170BDC04654700020CC7000202D
:1040680070B5054D054C0C3D20000C3C14F085F84E
:10407800AC42F9D170BDC04668400020E040002045
:1040880070B5054D054C0C3D20000C3C14F075F83E
:10409800AC42F9D170BDC046EC400020644100201C
:1040A80070B5054D054C0C3D20000C3C14F065F82E
:1040B800AC42F9D170BDC046DC3E0020543F002020
:1040C80070B5054D054C0C3D20000C3C14F055F81E
:1040D800AC42F9D170BDC046603F0020D83F0020F7
:1040E80070B5054D054C0C3D20000C3C14F045F80E
:1040F800AC42F9D170BDC046E43F00205C400020CE
:1041080010B5084C2000243014F037F8200018307F
:1041180014F033F820000C3014F02FF8200014F0BD
:084128002CF810BDF04B002043
:1041300010B5084C2000243014F023F8200018306B
:1041400014F01FF820000C3014F01BF8200014F0BD
:0841500018F810BDC04B00205F
:1041580010B5084C2000243014F00FF82000183057
:1041680014F00BF820000C3014F007F8200014F0BD
:0841780004F810BD8043002093
:1041800010B5084C2000243013F0FBFF200018303D
:1041900013F0F7FF20000C3013F0F3FF200013F0B2
:0841A000F0FF10BD50430020A8
:1041A80070B5054D054C0C3D20000C3C13F0E5FFA7
:1041B800AC42F9D170BDC046087E0020C08C0020FA
:1041C80070B5054C25000C3C483528000C3D13F013
:0C41D800D4FFA542F9D170BDB47D0020D9
:1041E40070B5054C25000C3C3C3528000C3D13F003
:0C41F400C6FFA542F9D170BD947C0020EC
:1042000070B5054C25000C3C3C3528000C3D13F0E6
:0C421000B8FFA542F9D170BD847B0020EE
:10421C0070B5054C25000C3C3C3528000C3D13F0CA
:0C422C00AAFFA542F9D170BD747A0020F1
:1042380070B5054C25000C3C3C3528000C3D13F0AE
:0C4248009CFFA542F9D170BD64790020F4
:1042540070B5054C25000C3C3C3528000C3D13F092
:0C4264008EFFA542F9D170BD54780020F7
:1042700070B5054C25000C3C3C3528000C3D13F076
:0C42800080FFA542F9D170BD44770020FA
:10428C0070B5054C25000C3C3C3528000C3D13F05A
:0C429C0072FFA542F9D170BD34760020FD
:1042A80070B5054C25000C3C3C3528000C3D13F03E
:0C42B80064FFA542F9D170BD2475002000
:1042C40070B5054C25000C3C483528000C3D13F016
:0C42D40056FFA542F9D170BD607D0020AE
:1042E00070B5054C25000C3C483528000C3D13F0FA
:0C42F00048FFA542F9D170BD0C7D0020F4
:1042FC0070B5054D054C0C3D20000C3C13F03BFFFC
:10430C00AC42F9D170BDC04630580020E8660020A0
:10431C0070B5054D054C0C3D20000C3C13F02BFFEB
:10432C00AC42F9D170BDC04634570020245800204F
:10433C0070B5054D054C0C3D20000C3C13F01BFFDB
:10434C00AC42F9D170BDC046D86D0020C86E0020BB
:10435C0070B5054D054C0C3D20000C3C13F00BFFCB
:10436C00AC42F9D170BDC046DC6C0020CC6D002095
:10437C0070B5054D054C0C3D20000C3C13F0FBFEBC
:10438C00AC42F9D170BDC046E06B0020D06C00206F
:10439C0070B5054D054C0C3D20000C3C13F0EBFEAC
:1043AC00AC42F9D170BDC046E46A0020D46B002049
:1043BC0070B5054D054C0C3D20000C3C13F0DBFE9C
:1043CC00AC42F9D170BDC046E8690020D86A002023
:1043DC0070B5054D054C0C3D20000C3C13F0CBFE8C
:1043EC00AC42F9D170BDC046EC680020DC690020FD
:1043FC0070B5054D054C0C3D20000C3C13F0BBFE7C
:10440C00AC42F9D170BDC046F0670020E0680020D6
:10441C0070B5054D054C0C3D20000C3C13F0ABFE6B
:10442C00AC42F9D170BDC046F4660020E4670020B0
:10443C0070B5054D054C0C3D20000C3C13F09BFE5B
:10444C00AC42F9D170BDC046384C0020284D00203C
:10445C0070B5054D054C0C3D20000C3C13F08BFE4B
:10446C00AC42F9D170BDC046F43A0020E43B0020C8
:10447C0070B5054D054C0C3D20000C3C13F07BFE3B
:10448C00AC42F9D170BDC046F8390020E83A0020A2
:10449C0070B5054D054C0C3D20000C3C13F06BFE2B
:1044AC00AC42F9D170BDC046FC380020EC3900207C
:1044BC0070B5054D054C0C3D20000C3C13F05BFE1B
:1044CC00AC42F9D170BDC04600380020F038002055
:1044DC0070B5054D054C0C3D20000C3C13F04BFE0B
:1044EC00AC42F9D170BDC04604370020F43700202F
:1044FC0070B5054D054C0C3D20000C3C13F03BFEFB
:10450C00AC42F9D170BDC04608360020F836002008
:10451C0070B5054D054C0C3D20000C3C13F02BFEEA
:10452C00AC42F9D170BDC0460C350020FC350020E2
:10453C0070B5054D054C0C3D20000C3C13F01BFEDA
:10454C00AC42F9D170BDC0461034002000350020BB
:10455C0070B5054D054C0C3D20000C3C13F00BFECA
:10456C00AC42F9D170BDC046385600202857002007
:10457C0070B5054D054C0C3D20000C3C13F0FBFDBB
:10458C00AC42F9D170BDC0463C5500202C560020E1
:10459C0070B5054D054C0C3D20000C3C13F0EBFDAB
:1045AC00AC42F9D170BDC04618540020085500200B
:1045BC0070B5054D054C0C3D20000C3C13F0DBFD9B
:1045CC00AC42F9D170BDC0461C5300200C540020E5
:1045DC0070B5054D054C0C3D20000C3C13F0CBFD8B
:1045EC00AC42F9D170BDC0462052002010530020BF
:1045FC0070B5054D054C0C3D20000C3C13F0BBFD7B
:10460C00AC42F9D170BDC046245100201452002098
:10461C0070B5054D054C0C3D20000C3C13F0ABFD6A
:10462C00AC42F9D170BDC046285000201851002072
:10463C0070B5054D054C0C3D20000C3C13F09BFD5A
:10464C00AC42F9D170BDC0462C4F00201C5000204C
:10465C0070B5054D054C0C3D20000C3C13F08BFD4A
:10466C00AC42F9D170BDC046304E0020204F002026
:10467C0070B5054D054C0C3D20000C3C13F07BFD3A
:10468C00AC42F9D170BDC046344D0020244E002000
:10469C0010B5024813F06FFD10BDC046B48D00205C
:1046AC0010B5024813F067FD10BDC046748D002094
:0E46BC0010B504000C3013F05EFD200010BDA0
:1046CC0010B502480C3013F056FD10BD5C71002083
:1046DC0010B502480C3013F04EFD10BDF47C0020D8
:1046EC0010B502480C3013F046FD10BDE47B0020E1
:1046FC0010B502480C3013F03EFD10BDD47A0020EA
:10470C0010B502480C3013F036FD10BDC4790020F2
:10471C0010B502480C3013F02EFD10BDB4780020FB
:10472C0010B502480C3013F026FD10BDA477002004
:10473C0010B502480C3013F01EFD10BD947600200D
:10474C0010B502480C3013F016FD10BD8475002016
:10475C0010B502480C3013F00EFD10BDC08D0020BA
:0E476C0010B50400203013F006FD200010BD33
:10477C0001210C4B70B51C684942A36D20009D1E95
:10478C000BF01EFE0849421E9041641A611E8C41BA
:10479C002100064BAD00C2B20831E858FFF7A0FB70
:1047AC0070BDC046006F0020D43D002020090020C1
:1047BC0070B5084D012128000BF0BFFD002104004D
:1047CC0028000BF0FDFD21B2020003480DF096FB12
:0C47DC0070BDC046CC420020C843002045
:1047E80070B5084D022128000BF0ECFD00210400F3
:1047F80028000BF0E7FD21B2020003480DF080FB12
:0C48080070BDC046CC420020DC43002004
:1048140010B5084CA36D012B05D0022B06D0200047
:104824000DF0A8F910BDFFF7C7FFF8E7FFF7DAFFAF
:08483400F5E7C046CC4200206C
:10483C0010B50248FFF7FCF910BDC04630720020DD
:10484C0010B50248FFF7F4F910BDC046B072002055
:10485C0010B50248FFF7ECF910BDC04630730020CC
:10486C0010B50248FFF7E4F910BDC046B073002044
:10487C00F8B5244B1868244B1978C9B2FBF77EFEA7
:10488C00002939D1214B0020185EFDF755F8011C89
:10489C001F48FCF757FEFEF777FE00221D4BFDF775
:1048AC00F1FB00221C4BFDF7F7FFFEF7BFFE0021CA
:1048BC00051CFBF7BBFF00281FD11849281CFBF770
:1048CC00C9FF00281BD1164B164A1B78281C9B00CD
:1048DC009F58FDF711F8144C26887600F053238866
:1048EC0001339BB223802388802B05D106220F4BEA
:1048FC001A700F4B0F4A1A60F8BD0025E3E7074DFD
:10490C00E1E7C046242000201BA900200C980020C1
:10491C000040CE4400C8A94000FEAF4000F07F45E7
:10492C001AA9002078030020209800201CA9002040
:08493C002C720020793F0010ED
:10494400054B10B51A78002A05D101321A7014F0FB
:104954002FF8024B186010BD14A90020FC6E002033
:1049640070B514F025F8104D104B2A681B789B186D
:10497400984210D9052014F0FDF80D4C01280BD1F4
:10498400053014F0F7F8236800280BD101332360B5
:1049940014F00EF8286070BD062014F0EBF82368BC
:1049A4000128F3D0013BF2E750420020580A0020CE
:0449B4005442002049
:1049B80070B513F0FBFF104D104B2A681B789B183D
:1049C800984210D9062014F0D3F80D4C01280BD1C9
:1049D800043014F0CDF8236801280BD1013323608B
:1049E80013F0E4FF286070BD052014F0C1F82368B7
:1049F8000028F3D0013BF2E750420020580A00207B
:044A080054420020F4
:104A0C0010B5054B8200D258044B01B204481A6011
:104A1C000DF010FB10BDC046F8030020006F002005
:044A2C00046F0020F3
:104A300073B506000C000021306822B203680091B3
:0E4A4000DD6B01348023A847402CF4D173BDF8
:0E4A4E0010B504008B6813F028FE200010BD88
:104A5C00F7B50400012518300DF0B4F92B003C22F9
:104A6C0002210095E0690DF03FFEE0690DF02BFE90
:104A7C00E0690EF06BF9E369AE215D61E069250038
:104A8C000DF0EFFD0F2713F08FFF002303262C35BD
:104A9C0060607F422B700023EB56092B1DDCE36911
:104AAC0038000C21595E12F0CFFF0023EB56062183
:104ABC007343E3181A002D321070F0222E331A7043
:104ACC00012012F0C1FF00223300AA565343E31811
:0C4ADC002F33013218702A70DDE7F7BD9F
:104AE80010B543780400002B02D018300DF0EEF812
:084AF800E0690DF0EAFD10BDBC
:104B0000012370B504000D000370AF21C0690DF0E2
:104B1000AEFDE06900210EF050F9002365705034BD
:044B2000237070BDD1
:104B24007FB5437804000E001500002B1FD01049F8
:104B3400100013F03FFD002819D11834290001A8F2
:104B440013F017FC01A920000DF09EF801A813F042
:104B540016FB20000DF058F8310001A813F009FCF1
:104B6400200001A90DF048F801A813F008FB7FBD4F
:044B7400A036031054
:104B7800F0B505008DB02F480E00170013F0E7FBC5
:104B88002D4C002F2BD021680A221531684613F0CE
:104B980081FB310003A813F0EAFB694603A813F070
:104BA800A7FC010006A813F0E2FB694609A813F068
:104BB800DEFB09AA06A92800FFF7B0FF09A813F031
:104BC800DCFA06A813F0D9FA03A813F0D6FA684657
:104BD80013F0D3FA2368013323600DB0F0BD2760CA
:104BE800164F06A8390013F017FB6B78002B0BD073
:104BF80006A909A813F0BBFB280009A918300DF075
:104C080077F809A813F0B9FA06A813F0B6FA310034
:104C180006A813F0ACFB390009A813F0FDFA09AA9D
:104C280006A92800FFF77AFF09A813F0A6FA06A834
:104C3800CEE7C0460C720020A03300209D3603103A
:104C4800072330B50D000400143AD117194089180C
:104C58008BB0C9100A22083101A813F01BFB2900E8
:104C680004A813F084FB01A907A813F080FB07AA86
:104C780004A92000FFF752FF07A813F07EFA04A842
:0E4C880013F07BFA01A813F078FA0BB030BDE0
:104C96007FB51D00037804000E00002B0ED0C369FB
:104CA6001A825D82089BC069D9B20EF0B7FC31004A
:104CB600E06913F068F8E0690DF099FF6378002B5E
:104CC6000BD0310001A813F053FB20002A0001A9E4
:0C4CD600FFF7B7FF01A813F051FA7FBDF3
:104CE400F0B505000F004024012689B02800FFF725
:104CF400F9FE40230193DB1822B2009300213B000C
:104D0400E8690296023C0EF037FAA4B2E8690DF0A5
:104D14006FFF102CEAD1280021001C30FFF786FE1B
:104D24000E4905A813F07AFA002305A91A002800F1
:104D34000096FFF7AEFF05A813F021FA4023019374
:104D4400DB18009322003B000021E86902960EF074
:104D540013FAE8690DF04CFF09B0F0BDA536031055
:104D640070B515001E00040086B003A813F001FB03
:104D74002B00002203A920000096FFF78AFF03A856
:084D840013F0FDF906B070BD4B
:104D8C0070B5057804AC2478002D0ED0002C05D01D
:104D9C007F290BDD7F217F2A0CDD7F22C0699BB22E
:104DAC00046812B209B22469A04770BDCC43E41761
:0C4DBC002140F0E7D443E4172240EFE769
:104DC800F0B5037889B005000E000392002B47D098
:104DD80001248B1E971E3A00059302392300009484
:104DE800FFF7D0FF731E0693039B711E013B0493CC
:104DF800049A230028000094FFF7C4FFB31C3A006C
:104E0800B11C07932800230036190094FFF7BAFF56
:104E18002300049A310028000094FFF7B3FF039B96
:104E280005999F1C3A00230028000094FFF7AAFF69
:104E3800039B06991B190393039A230028000094E7
:104E4800FFF7A0FF23003A00079928000094FFF716
:104E580099FF00942300039A31002800FFF792FF7E
:044E680009B0F0BDE0
:104E6C00F0B58FB0029104002E4905A803921D00E5
:104E7C0013F0D0F92C4908A813F0CCF90026039AAA
:104E8C002378964222DA002B0CD00021E069B30083
:104E9C00E3189A6803680091DB6BAA181F0012B222
:104EAC008023B8476378002B0ED008A90BA813F009
:104EBC005CFAB300E3189A682000AA180BA9FFF754
:104ECC00BDFE0BA813F057F90136D8E7002B0DD017
:104EDC000121029BE06902339B001A590368AA184E
:104EEC000091DE6B12B280230021B0476378002B57
:104EFC000FD005A90BA813F038FA029B200002333F
:104F0C009B001A590BA9AA18FFF798FE0BA813F0CF
:104F1C0032F908A813F02FF905A813F02CF90FB0EB
:0C4F2C00F0BDC046533603106936031078
:104F3800F0B52E4C0500A544100005930491FCF72C
:104F480047FD011C8620C005FBF7F4FF03902800ED
:104F580000241C301021FFF767FD0294029B049A7D
:104F68005B00985AFCF7EAFC061C0598FCF7E6FC7F
:104F7800011C301CFBF7DEFF1D49FCF7B3F9FCF7F9
:104F8800BDFC3F23A700181A102800DA10200822B9
:104F980004AB9B18D8510134029B20005E1CFCF71F
:104FA800CDFC071C3000FCF7C9FC0399FCF79AF903
:104FB800011C381CFBF750FC002800D00296802CFE
:104FC800CCD100240023A100009306AA8A580133FB
:104FD800210028000134FFF7D5FE802CF2D1E869C2
:104FE8000DF004FE87239B009D44F0BDE4FDFFFF08
:044FF8000000404233
:104FFC00F0B5037885B006000C00002B1CD00127FF
:10500C0093B20393C06915B2B36D039A09B29A1A9D
:10501C00036800979B6B12B21F0001342B00B8473A
:10502C0021B20124039BF069B26DD21A036800947B
:0C503C009C6B12B22B00A04705B0F0BD29
:10504800F0B50F0089B0050005A81C00160013F084
:105058008EF9390002A813F08AF90622049B05A9E3
:105068005A43130080226343D21A5208D2B2330043
:1050780028000094FFF70BFE02A813F07EF805A89D
:0850880013F07BF809B0F0BD44
:1050900010B50A4C0E2120000DF076F8084B0200E6
:1050A00000209A4209D10C2120000DF06DF8054B2B
:1050B0001B68181A43425841C0B210BD3C42002040
:0850C000AA5500004C0200207B
:0250C80070472F
:1050CC00002110B5884200D1FF31054B18680FF054
:1050DC0083FC044BFF2118680FF07EFC10BDC0460A
:0850EC00F01F0020E81F002066
:1050F400F0B5002406000D00270085B0029203934A
:105104000194AB680133A3421AD92100280013F09B
:105114009FFA029B984202D0AB689C420ED1039B3B
:105124009F4208D12300019A2900300013F0BAFAF3
:10513400300005B0F0BD631C013701930134E0E792
:105144000249300013F06AF8F2E7C0466A310310EE
:105154007FB50E000B4D0400290001A813F05EF882
:10516400310001A813F0C6F9290013F0D0F90100A9
:10517400200013F0FEF801A813F001F8200004B099
:0851840070BDC0466331031049
:10518C0010B5024B185C13F0CBFC10BDEC040020E6
:10519C0010B500210720FFF7F3FF00210820FFF7CF
:0451AC00EFFF10BD44
:1051B000064A074B30B519681468601A451EA841A5
:1051C000C0B28C4201D012681A6030BD5442002037
:0451D0007C450020FA
:1051D4000023024A1360024A1360704754420020BD
:0451E4007C450020E6
:1051E800034B01201B68002B00DC02387047C046C7
:0451F80054420020FD
:1051FC0010B5032805D8FBF731F902050E14FFF79B
:10520C00C7FF10BD01210720FFF7BAFF00210820BE
:10521C00FFF7B6FFF5E700210720FFF7B1FF0121EB
:06522C00F5E70121F8E79F
:10523400F0B5856889B004000191002D3CD01F4F62
:105244007B78002B38D01E4E310013F0A5F90028CE
:1052540002D0019B002B2FD026216D084D1B05A8E1
:10526400184912F0DBFF1849294004D502230139FB
:105274005B421943013149193D000A22183502A83D
:1052840013F00AF802AA05A928000CF0CFFC02A822
:1052940012F075FF05A812F072FF210005A813F0A3
:1052A40068F805A928000CF09FFC05A812F067FF18
:1052B4002100300013F04DF809B0F0BD3074002027
:0C52C400804500205121031001000080F3
:1052D000162310B586B06B44039312236B440193DD
:1052E00004AB0093002305AC064802941A0006495B
:1052F000C0690EF066FA21888020FBF749F980B278
:0C53000006B010BD30740020FC0F03103C
:10530C00F0B5050087B0160000291FD0454C2000D1
:10531C0018300CF0D9FC4449684612F07BFF290088
:10532C00684613F0E3F8010003A813F01EF803A974
:10533C0000222000FFF71AFC03A812F01CFF68469D
:10534C0012F019FF3100394812F01AFD00242B001D
:10535C0054331B88A34263DD26B2310028000AF0C7
:10536C00C1FF012803D902282AD00134EFE73049C4
:10537C0003A812F04FFF0A222100684612F088FFA2
:10538C00694603A813F0B2F8284F0100380012F058
:10539C00F7FC684612F0EFFE03A812F0ECFE3100A9
:1053AC0028000AF0CAFF0A22010003A812F070FFBD
:1053BC0003A9380012F0E4FC03A812F0DCFED4E7D9
:1053CC001B4903A812F026FF0A222100684612F09E
:1053DC005FFF694603A813F089F8144F01003800E9
:1053EC0012F0CEFC684612F0C6FE03A812F0C3FE03
:1053FC00104903A812F00EFF3200290068460BF08A
:10540C0000F8694603A813F071F80100380012F097
:10541C00B7FC684612F0AFFE03A812F0ACFEA4E78E
:10542C0007B0F0BD30740020EBF6021050290020BC
:08543C00FAF60210FCF6021062
:1054440030B5234C87B02349200012F079FC224D5B
:1054540028000EF0CDFE0100200012F09FFC1F4931
:10546400200012F06DFC1E4B0A221968684612F0E7
:1054740013FF6946200012F087FC684612F07FFE95
:10548400290068460EF0ABFE1649200012F058FCC5
:105494006946200012F08CFC28000EF0ADFE0500D9
:1054A4001149200012F04CFC0A222900200012F0BD
:1054B400ADFC0E49200012F071FC0D49200012F0E1
:1054C4003FFC6946200012F073FC07B030BDC046B3
:1054D4005029002037F60210282000203EF6021042
:1054E400B08D002047F6021054F602106CF602103C
:0454F40071F602103B
:1054F80010B50400881E062813D8FAF7B1FF0A125F
:105508000C04120E10000849200012F085FE20003D
:1055180010BD0649F8E70649F6E70649F4E70649E3
:10552800F2E70649F0E7C046D2F70210D6F70210B4
:10553800DAF70210DFF70210E4F70210E9F70210B9
:1055480010B5040005292AD00EDC022923D005DC79
:1055580000291CD001291CD0154913E003291CD0AF
:105568000429F9D113490DE008291CD005DC0629C6
:1055780017D00729F0D1104904E0092915D0FF29CF
:10558800EAD10E49200012F047FE200010BD0C4958
:10559800F8E70C49F6E70C49F4E70C49F2E70C493F
:1055A800F0E70C49EEE70C49ECE70C49EAE7C0469E
:1055B800E9F702105F1003108B100310341003106A
:1055C8003E100310431003105010031098100310DE
:1055D8006E1003107E10031095100310A210031014
:1055E80010B5C9B2040004480EF022FE01002000E4
:0C55F800FFF77EFF200010BD28200020DF
:1056040070B50D008CB0274904006846160012F0EE
:1056140005FEE9B224480EF008FE010003A812F0CA
:10562400FDFD002E25D0214909A812F0F7FD29001F
:1056340006A8FFF7D7FF06A909A812F05BFF1C49CB
:1056440012F065FF0100684612F083FE06A812F00E
:1056540096FD09A812F093FD0E23002203A909A8C0
:1056640013F020F809A903A812F08DFE09A812F07E
:1056740086FD03A909A812F07CFE694609A812F068
:1056840039FF0100200012F074FE09A812F077FD22
:1056940003A812F074FD684612F071FD20000CB0EE
:1056A40070BDC046E1F002102820002065310310CF
:0456B4006831031046
:1056B80010B502480EF0A2FD10BDC04628200020FB
:1056C80070B504002CC92CC012F051FE200070BD2A
:1056D800F0B5FD4A8BB00021FC480CF05DFCFC4C99
:1056E800FC49200012F098FDFB4FFC4D3A002900C0
:1056F800200019F02BF9FA4CFA49200012F08CFD21
:105708003A002900200019F021F9F74CF749200048
:1057180012F082FD3A002900200019F017F9F44C24
:10572800F449200012F078FD3A002900200019F011
:105738000DF9F14CF149200012F06EFD29003A00F4
:10574800200019F003F907220021ED480CF024FC91
:1057580008220021EB480CF01FFC0021EA48FEF764
:1057680053FA0121E948FEF74FFA0221E848FEF70B
:105778004BFA0321E748FEF747FAE74B402202932A
:10578800E64B802101931023E5480093E54B0CF08C
:105798004DFE3A00E449E24819F0D8F8E34907A871
:1057A80012F03AFDE24C0123210000220831237057
:1057B80063700B006260DF4A43CA43C3200011686C
:1057C800183019600CF00DFADB4EDC48310012F08D
:1057D80023FD2100002274235031E2640A70D04A6C
:1057E800636507A9663BD548A365E26112F0AFFD82
:1057F80007A812F0C2FC3A00D149200019F0A6F817
:10580800D04C2000FEF7DEF93A00CF49200019F00D
:105818009DF8CE48FEF7B8F8CD4C3100200012F0C4
:10582800FBFC3A002900200019F090F8C94C31001F
:10583800200012F0F1FC3A002900200019F086F847
:10584800C54C3100200012F0E7FC3A002900200086
:1058580019F07CF85021C1480EF0CCFFC04C402113
:1058680020000CF0F5FBBF4D3A002900200019F08C
:105878006DF82100BC48FFF723FF3A00BB49002020
:1058880019F064F8BA4C402120000CF0E1FB3A0012
:105898002900200019F05AF8B6480CF051FBB64D13
:1058A800B649280012F0B8FC3A00B549002019F0B2
:1058B8004DF8B449B44812F0AFFC3A00B34900209F
:1058C80019F044F8B24907A812F0A6FC0123B14C1C
:1058D8002A0007A900932000AF4B0AF0B5FC07A8DF
:1058E80012F04BFC3A00AD49200019F02FF8AC49F2
:1058F800AC4812F091FCAC49AC4812F08DFCAC49B4
:10590800AC4812F089FCAC49AC4812F085FCAC49B3
:10591800AC4812F081FCAC49AC4812F07DFCAC49B3
:10592800AC4812F079FCAC49AC4812F075FCAC49B3
:10593800AC4812F071FCAC49AC4812F06DFCAC49B3
:10594800AC4812F069FCAC49AC4812F065FCAC49B3
:10595800AC4812F061FCAC49AC4812F05DFCAC49B3
:10596800AC4812F059FCAC49AC4812F055FCAC4DAF
:10597800AC48290012F050FCAB49AC4812F04CFC82
:10598800AB49AC4812F048FCAB49AC4812F044FCB7
:10599800AB4CAC48210012F03FFC3A00AA49002069
:1059A80018F0D4FF7E49A94812F036FC7E49A84871
:1059B80012F032FC7E49A74812F02EFC7E49A64818
:1059C80012F02AFC7E49A54812F026FC7E49A4481C
:1059D80012F022FC7E49A34812F01EFC7E49A24820
:1059E80012F01AFC7E49A14812F016FC7E49A04824
:1059F80012F012FC7E499F4812F00EFC7E499E4828
:105A080012F00AFC7E499D4812F006FC7E499C482B
:105A180012F002FC7E499B4812F0FEFB7E499A4830
:105A280012F0FAFB2900994812F0F6FB7E499848D3
:105A380012F0F2FB7E49974812F0EEFB7E49964839
